:020000040000FA
:1000000040020020D5000000D9000000DB00000005
:1000100000000000000000000000000000000000E0
:10002000000000000000000000000000DD000000F3
:100030000000000000000000DF000000E100000000
:10004000E3000000E5000000E7000000E900000018
:10005000EB000000ED000000EF000000F1000000E8
:10006000F3000000F5000000F7000000F9000000B8
:10007000FB000000FD000000FF0000000101000087
:100080000301000005010000070100000901000054
:100090000B0100000D0100000F0100001101000024
:1000A00013010000150100001701000019010000F4
:1000B0001B0100001D0100001F01000021010000C4
:1000C0000348854600F054F8004800475D0B0000E7
:1000D0004002002013480047FEE7FEE7FEE7FEE788
:1000E000FEE7FEE7FEE7FEE7FEE7FEE7FEE7FEE7E8
:1000F000FEE7FEE7FEE7FEE7FEE7FEE7FEE7FEE7D8
:10010000FEE7FEE7FEE7FEE7FEE7FEE7FEE7FEE7C7
:10011000FEE7FEE7FEE7FEE7FEE7FEE7FEE7FEE7B7
:10012000FEE70000C100000030B50B46014600208C
:100130002022012409E00D46D5409D4205D31D46ED
:100140009540491B2546954040191546521E002DE5
:10015000F1DC30BD30B504460020034600E05B1CF6
:10016000934203D2E05CCD5C401BF8D030BD000070
:10017000064C0125064E05E0E36807CC2B430C3CFA
:1001800098471034B442F7D3FFF79EFF500C00009D
:10019000800C0000F8B500920D460646C00B0E27F5
:1001A000074000F0C5FA3846A030214CA047300A7D
:1001B000C0B2A047F0B2A0475F20C043461C3E43F8
:1001C00000F0B6FAF0B2A0472846009900F08EFA87
:1001D00000F0CCFAF8BDC046F0B5A1B0002924D09B
:1001E00014460D46064601AF3946FFF7D3FF2846B1
:1001F00039462246FFF7AEFF002813D0F00BA027A8
:10020000074300F095FAAE203840094FB847300A4E
:10021000C0B2B847F0B2B8472846214600F04CFBC0
:1002200000F0A4FA082000F057FC21B0F0BDC04651
:10023000A907000001228A400168914301607047CC
:100240000268CA400120104070470000B0B5DC4A87
:10025000904216D0DB4A904237D0DB4A904200D021
:10026000E8E0DA4A13680120034313600A78072A9A
:100270003BD893000F249C40D54B1D68A5431D60BF
:100280003DE0D24802680423134303600A78072A3A
:1002900006D890000F238340CD4804699C43046135
:1002A0004878042863D8C0467844007940008744E1
:1002B00002616F85970001209040C64A936803430E
:1002C0009360C54A936883435DE0C0480268022397
:1002D000134303600A78072A26D890000F2383402F
:1002E000BB4884689C43846028E00F2A07D89300A9
:1002F000203B0F249C40B64B5D68A5435D604B7866
:10030000042B00D997E0C0467B441B795B009F44D7
:100310000294A1B6C7009040F24A136803431360E9
:10032000AD4A1368834390E00F2A07D89000203825
:100330000F238340A648C4689C43C46048780428BF
:1003400000D9D8E04000C046784480884000874407
:100350000400D500E300F9000B0101209040E14AC0
:100360005368034353609C4A53688343CFE00120A2
:1003700090404BE001209040DA4A93680343936039
:10038000954A936803439360944A936883430CE0CF
:1003900001209040D34A9368034393608E4A936848
:1003A000834393608D4A936803439360CE4A936876
:1003B000834393608A4A1368834326E00120904078
:1003C000C84A936883439360834A936883439360E6
:1003D000824A936883439360C34A9368834310E0DF
:1003E00001209040BF4A9368834393607A4A9368A0
:1003F00083439360794A936883439360BA4A9368CE
:1004000003439360764A1368034313608B78754AFD
:10041000012B02D19368034301E093688343936007
:10042000CA787149012A02D18A68024301E08A68C8
:1004300082438A60B0BD904047E09040A94A13686B
:1004400003431360644A136803431360634A1368E9
:1004500083430BE09040A34A1368034313605E4A52
:100460001368834313605D4A1368034313609E4A15
:100470001368834313605E4A1368834324E090400B
:10048000984A136883431360534A13688343136085
:10049000524A136883431360934A136883430FE0FF
:1004A0009040904A1368834313604B4A1368834318
:1004B00013604A4A1368834313608B4A13680343EB
:1004C00013604B4A1368034313608B78454A012B32
:1004D00002D11368034301E0136883431360CA78B1
:1004E0004149012A03D10A6802430A60B0BD0A6883
:1004F00082430A60B0BD012090404BE00120904053
:10050000EA4A536803435360334A536803435360D2
:10051000324A536883430CE001209040E34A536819
:10052000034353602C4A5368834353602B4A5368F8
:1005300003435360DE4A5368834353602B4A136876
:10054000834326E001209040D84A53688343536098
:10055000214A536883435360204A5368834353605E
:10056000D34A5368834310E001209040CF4A536838
:1005700083435360184A536883435360174A536850
:1005800083435360CA4A536803435360174A13684E
:10059000034313608B78134A012B02D15368034342
:1005A00001E0536883435360CA780F49012A03D19D
:1005B0004A6802434A60B0BD4A6882434A60B0BD9F
:1005C00000100640000806400000064008000040F9
:1005D00000000B4000010B4000020B4000030B40E9
:1005E0000410064000070B4000050B4004080640BD
:1005F0000400064001228A400168114301607047EF
:10060000F0B585B000900120C202A84B1968019294
:1006100011431960A64A1168A34B19401160D64ACC
:100620005168194051608002029000200746A14E97
:100630001FE00397D04F049038689A49084038600B
:1006400001252846B0473868029908433860284693
:10065000B0472846B0473C6838689249084038603F
:100660002846B047039840002105C90F0F18049889
:10067000401C0728DDD98D48024600688A49084099
:1006800010608B4801460068019C20430860BA480E
:1006900006464068204370603068824908403060F8
:1006A0000125284683498847306804437E4908402D
:1006B0000099002900D10446AF4806460460284648
:1006C0007C490C46884730680299084330602846C8
:1006D000A04730687349084030602846A047F8B208
:1006E00005B0F0BD00010B4000040B40FEB50C4608
:1006F00005460120012903D1FFF782FF287014E08D
:1007000001900294671E002604E00020FFF778FFA6
:100710002855761C012000F005FAB4B2A742F4DC9B
:100720000198FFF76DFF2855029C204603B0F0BDED
:10073000F8B50124E702904D2868384328605D49E8
:1007400020468847A6022868304328602046594939
:1007500088472868B84328602046564FB84728681D
:10076000B04328602046B847F8BDC046F8B501241C
:10077000E502814E3068A84330604E4920468847E4
:10078000A7023068B843306020464A49884730683D
:10079000384330602046474FB847306828433060C0
:1007A0002046B847F8BDC046F0B585B00446724A49
:1007B00010683C49084010600125284600F0B2F955
:1007C0000027F8430290A8020190E8020390394EF6
:1007D00020E0694801680846334A1040039A1143F3
:1007E000049462B2029B9A4200DC0846624C20608C
:1007F00001252846B0472068019908432060284613
:10080000B04720682749084020602846B0477F1C31
:10081000049C6400072FDCD9244F386803990843EF
:100820003860234D2868204A10402860F348064667
:1008300040681040706030680843306001242046F2
:1008400000F070F93068019908433060204600F0EC
:1008500069F900200146C443029AD2B2CBB2934256
:1008600006D0491CE54A12680024039B1A42F2D1C3
:10087000E24E30680B4908403060012000F052F928
:100880003868094908403860286803990843286097
:10089000706808437060306808433060204605B0D7
:1008A000F0BDC046FFFBFFFFFFF7FFFF00010B405D
:1008B00000040B40250B0000F8B50C460546002649
:1008C000374609E02878FFF76FFF01460020C04354
:1008D000002905DB7F1C6D1CF8B2A042F2D3304624
:1008E00001B0F0BDF8B56D4620482880C548204EBF
:1008F0002946B0471F482880C04C20462946B047AB
:100900001E48288020462946B047FF273846063033
:100910002880B9482946B04704372F802046294609
:10092000B047C1208000288020462946B04714489F
:10093000288020462946B0470C4828802046294672
:10094000B0471048288020462946B04705210E4D63
:100950002046A84706212046A84707212046A84749
:1009600004212046FFF766FCF8BDC04606030000E0
:100970004D0200000A030000000006400B030000C7
:100980000503000007030000F505000010B53E4810
:1009900001680124214302229143016000F008F81C
:1009A00071218843A10708604868A043486010BDD2
:1009B0001320C0010121890709680A4682430809FA
:1009C000802303409A1803208302C8001840104374
:1009D0007047000070B50124A0070168C90706D15F
:1009E000294800682649800711D428481BE001687F
:1009F0000907490F8C4002685206520F09D003685C
:100A000070221340202B15D11E48C8400AE021480F
:100A100009E01D4800688007C00F8440E1B21B4810
:100A2000FFF782FB164908602A49FFF77DFB14494E
:100A3000486070BD01681140402909D10068000577
:100A400009D4114800688007C00F84400F4803E0B4
:100A50000B480068E8E70B480D4D29684905C90EA9
:100A6000491CFFF761FB064E306029683E220A40B0
:100A7000911C4843E1B2FFF757FB3060D4E7C04612
:100A8000A401002000127A0010080040006CDC0273
:100A90008001004000366E0180B5002000F0B6F8FD
:100AA00000F0BAF8FFF772FFFFF794FF012000F0A3
:100AB000ADF880BD80B5064800680649FFF734FBF5
:100AC00023490870C0B27D22D20042434A6080BDF3
:100AD000A401002040420F0010B5044603E0C820E6
:100AE00000F00AF8C83CA0B2C928F8D2210401D00D
:100AF00000F002F810BD000015494968414315484F
:100B0000416000218160026801210A430260124AAB
:100B100003681340012BFBD002688A430260002166
:100B2000816070470A49097841430A4841600021C1
:100B30008160026801210A430260074A036813408A
:100B4000012BFBD002688A4302600021816070475C
:100B5000B001002010E000E00100010070B592B08B
:100B6000FFF79AFFFFF7BEFEFFF7A4FF10A80121D1
:100B70000170214C05212046FFF762FB002805D0BB
:100B80001E480321FFF75CFB002830D105212046D9
:100B9000FFF756FB002802D110A802210170184867
:100BA00010A90122FFF718FB16480621FFF722FDC6
:100BB0000025154C12E0412000032E013018694633
:100BC0004022FFF7E7FA3019002104E06A46525844
:100BD00042501192091D4029F8D12D1D280A0328E1
:100BE000E9D372B66068216881F30888804700F015
:100BF00019F8002012B070BD001006400000064039
:100C0000F01F0000000806400008002003B401485F
:100C1000019001BD0100002003B40148019001BD15
:100C2000D900002003B40148019001BD7D010020DE
:100C300002E008C8121F08C1002AFAD170477047A5
:100C4000002001E001C1121F002AFBD17047000003
:100C5000800C000000000020A4010000300C000007
:100C6000240E0000A40100200C000000300C000045
:100C7000300E0000B001002090000000400C000089
:100C8000B0B5044600F05EF8544D28681C21884336
:100C90002860204600F048F805480168054A4A43A4
:100CA0006A62006804494143A9625520A861B0BD49
:100CB000A8010020100EA00112B000000948016830
:100CC00004220A430260704706490A6803239A43D4
:100CD00002430A607047C0460248016804229143FB
:100CE0000160704720F0064072B63C494A6992079D
:100CF000FCD40A6814231343082293430B60800832
:100D00004860AA20C8610869012202430A61486953
:100D10008007FCD4C8680A681C239A430A605522DD
:100D20008A6162B67047C0462C49012805D0002868
:100D300007D108680122904302E00A6801201043AD
:100D4000086070470120C107244802688A43026096
:100D50004169C907FCD17047F8B5204908680222EB
:100D60000092104308601E4C1E4D2046A8471E4F9F
:100D7000B867201DA847F86720460830A8471B4ED3
:100D800030600C342046A8477060F720C00001692D
:100D90003967C1687967C16A154A1160816A516013
:100DA000016A1161C1695161816991614169D161D2
:100DB0000168104A11604068012149063A680A43F7
:100DC0003A60C1B20C4A11608001800D5060034945
:100DD0000868009A90430860F8BDC04600F00640DD
:100DE00018F0000069000020080000408800004062
:100DF00020080040B8010020F0A00B40FFF76CFF76
:100E00000220FFF761FFFFF759FFBFF34F8F034841
:100E100003490160BFF34F8FFEE7C0460CED00E0D1
:100E20000400FA05006CDC02300000000000000045
:04000005000000C136
:00000001FF
